{
  "contractName": "Master",
  "abi": [
    {
      "constant": false,
      "inputs": [
        {
          "name": "_stateName",
          "type": "bytes32"
        }
      ],
      "name": "insertState",
      "outputs": [],
      "payable": false,
      "stateMutability": "nonpayable",
      "type": "function"
    },
    {
      "constant": true,
      "inputs": [
        {
          "name": "_stateID",
          "type": "uint256"
        }
      ],
      "name": "showDistricts",
      "outputs": [
        {
          "name": "",
          "type": "bytes32[]"
        },
        {
          "name": "",
          "type": "uint256[]"
        }
      ],
      "payable": false,
      "stateMutability": "view",
      "type": "function"
    },
    {
      "constant": false,
      "inputs": [
        {
          "name": "_stateID",
          "type": "uint256"
        },
        {
          "name": "_districtName",
          "type": "bytes32"
        }
      ],
      "name": "insertDistrict",
      "outputs": [],
      "payable": false,
      "stateMutability": "nonpayable",
      "type": "function"
    },
    {
      "constant": true,
      "inputs": [],
      "name": "showState",
      "outputs": [
        {
          "name": "",
          "type": "bytes32[]"
        },
        {
          "name": "",
          "type": "uint256[]"
        }
      ],
      "payable": false,
      "stateMutability": "view",
      "type": "function"
    }
  ],
  "bytecode": "0x60606040526000600155341561001457600080fd5b6105dd806100236000396000f300606060405260043610610062576000357c0100000000000000000000000000000000000000000000000000000000900463ffffffff168063145ed434146100675780635618ff111461008e578063c550ccea1461014e578063c70073711461017e575b600080fd5b341561007257600080fd5b61008c600480803560001916906020019091905050610230565b005b341561009957600080fd5b6100af6004808035906020019091905050610283565b604051808060200180602001838103835285818151815260200191508051906020019060200280838360005b838110156100f65780820151818401526020810190506100db565b50505050905001838103825284818151815260200191508051906020019060200280838360005b8381101561013857808201518184015260208101905061011d565b5050505090500194505050505060405180910390f35b341561015957600080fd5b61017c6004808035906020019091908035600019169060200190919050506103c0565b005b341561018957600080fd5b610191610488565b604051808060200180602001838103835285818151815260200191508051906020019060200280838360005b838110156101d85780820151818401526020810190506101bd565b50505050905001838103825284818151815260200191508051906020019060200280838360005b8381101561021a5780820151818401526020810190506101ff565b5050505090500194505050505060405180910390f35b806000806001548152602001908152602001600020600101816000191690555060015460008060015481526020019081526020016000206000018190555060016000815480929190600101919050555050565b61028b610589565b61029361059d565b600061029d610589565b6102a561059d565b6000806000888152602001908152602001600020600201549350836040518059106102cd5750595b90808252806020026020018201604052509250836040518059106102ee5750595b90808252806020026020018201604052509150600090505b838110156103b157600080888152602001908152602001600020600301600082815260200190815260200160002060010154838281518110151561034657fe5b906020019060200201906000191690816000191681525050600080888152602001908152602001600020600301600082815260200190815260200160002060000154828281518110151561039657fe5b90602001906020020181815250508080600101915050610306565b82829550955050505050915091565b806000808481526020019081526020016000206003016000806000868152602001908152602001600020600201548152602001908152602001600020600101816000191690555060008083815260200190815260200160002060020154600080848152602001908152602001600020600301600080600086815260200190815260200160002060020154815260200190815260200160002060000181905550600080838152602001908152602001600020600201600081548092919060010191905055505050565b610490610589565b61049861059d565b60006104a2610589565b6104aa61059d565b60006001549350836040518059106104bf5750595b90808252806020026020018201604052509250836040518059106104e05750595b90808252806020026020018201604052509150600090505b8381101561057b5760008082815260200190815260200160002060010154838281518110151561052457fe5b90602001906020020190600019169081600019168152505060008082815260200190815260200160002060000154828281518110151561056057fe5b906020019060200201818152505080806001019150506104f8565b828295509550505050509091565b602060405190810160405280600081525090565b6020604051908101604052806000815250905600a165627a7a72305820150efe4f7cf4f18ed9be58820d58b8a2548c9c2ad531b4424b13e1427fbfde0e0029",
  "source": "pragma solidity ^0.4.17;\r\n\r\ncontract Master {\r\n\r\nmapping (uint => stateStruct) stStruct;\r\n\r\nuint _stateCount = 0;\r\n    /**State Structure */\r\n    struct stateStruct {\r\n        uint id;\r\n        bytes32 stateName;\r\n        uint _ditrictCount;\r\n        mapping (uint => districtStruct) distStruct; \r\n\r\n    }\r\n\r\n    /**District Structure */\r\n    struct districtStruct {\r\n        uint id;\r\n        bytes32 districtName;\r\n    }\r\n\r\n    /**insert State*/\r\n    function insertState (bytes32 _stateName ) public {\r\n        stStruct[_stateCount].stateName = _stateName;\r\n        stStruct[_stateCount].id = _stateCount;\r\n        _stateCount++;\r\n\r\n    } \r\n    /**show State*/\r\n    function showState () public constant returns(bytes32[], uint[]) {\r\n        uint _totalStates = _stateCount;\r\n        bytes32[] memory stateName_ = new bytes32[](_totalStates); \r\n        uint[] memory id_ = new uint[](_totalStates);\r\n\r\n        for (uint i = 0; i < _totalStates; i++) {\r\n            stateName_[i] = stStruct[i].stateName;\r\n            id_[i] = stStruct[i].id;\r\n        }\r\n\r\n        return(stateName_, id_);\r\n\r\n    }\r\n\r\n    /** insert District */\r\n    function insertDistrict (uint _stateID, bytes32 _districtName) public {\r\n        stStruct[_stateID].distStruct[stStruct[_stateID]._ditrictCount].districtName = _districtName;\r\n        stStruct[_stateID].distStruct[stStruct[_stateID]._ditrictCount].id = stStruct[_stateID]._ditrictCount;\r\n        stStruct[_stateID]._ditrictCount++;\r\n    }\r\n\r\n    /**show district */\r\n    function showDistricts (uint _stateID) public constant returns (bytes32[], uint[]){\r\n        uint _totalDistrict = stStruct[_stateID]._ditrictCount;\r\n\r\n        bytes32[] memory districtName_ = new bytes32[](_totalDistrict);\r\n        uint[] memory id_ = new uint[](_totalDistrict);\r\n\r\n        for (uint i = 0; i < _totalDistrict; i++){\r\n            districtName_[i] = stStruct[_stateID].distStruct[i].districtName;\r\n            id_[i] = stStruct[_stateID].distStruct[i].id;\r\n\r\n        }\r\n        return(districtName_, id_);\r\n    }\r\n\r\n}  ",
  "sourcePath": "E:\\blockchain_sultans\\jio_mi-le_contracts\\contracts\\master.sol",
  "compiler": {
    "name": "solc",
    "version": "0.4.18+commit.9cf6e910.Emscripten.clang"
  },
  "schemaVersion": "1.0.1",
  "updatedAt": "2018-05-14T15:05:52.329Z"
}