{
  "contractName": "MiLeregistration",
  "abi": [
    {
      "constant": true,
      "inputs": [
        {
          "name": "_rID",
          "type": "uint256"
        }
      ],
      "name": "showRegDataSingle",
      "outputs": [
        {
          "name": "name_",
          "type": "bytes32"
        },
        {
          "name": "loanpoints_",
          "type": "uint256"
        },
        {
          "name": "contactNO_",
          "type": "uint256"
        },
        {
          "name": "emailAdd_",
          "type": "bytes32"
        },
        {
          "name": "acountPublicADD_",
          "type": "bytes32"
        },
        {
          "name": "password_",
          "type": "bytes32"
        }
      ],
      "payable": false,
      "stateMutability": "view",
      "type": "function"
    },
    {
      "constant": false,
      "inputs": [
        {
          "name": "_name",
          "type": "bytes32"
        },
        {
          "name": "_adharNo",
          "type": "uint256"
        },
        {
          "name": "_contactNo",
          "type": "uint256"
        },
        {
          "name": "_altContactNo",
          "type": "uint256"
        },
        {
          "name": "_emailAdd",
          "type": "bytes32"
        },
        {
          "name": "_add",
          "type": "bytes32"
        },
        {
          "name": "_pssword",
          "type": "bytes32"
        },
        {
          "name": "_acountPublicADD",
          "type": "bytes32"
        },
        {
          "name": "_state",
          "type": "bytes32"
        },
        {
          "name": "_district",
          "type": "bytes32"
        },
        {
          "name": "_loanpoints",
          "type": "uint256"
        }
      ],
      "name": "insertReg",
      "outputs": [],
      "payable": false,
      "stateMutability": "nonpayable",
      "type": "function"
    },
    {
      "constant": true,
      "inputs": [
        {
          "name": "_regno",
          "type": "uint256"
        }
      ],
      "name": "showAllLoan2",
      "outputs": [
        {
          "name": "",
          "type": "uint256[]"
        },
        {
          "name": "",
          "type": "bytes32[]"
        },
        {
          "name": "",
          "type": "uint256[]"
        },
        {
          "name": "",
          "type": "uint256[]"
        },
        {
          "name": "",
          "type": "bytes32[]"
        }
      ],
      "payable": false,
      "stateMutability": "view",
      "type": "function"
    },
    {
      "constant": true,
      "inputs": [],
      "name": "showRegData",
      "outputs": [
        {
          "name": "",
          "type": "bytes32[]"
        },
        {
          "name": "",
          "type": "bytes32[]"
        },
        {
          "name": "",
          "type": "uint256[]"
        },
        {
          "name": "",
          "type": "bytes32[]"
        }
      ],
      "payable": false,
      "stateMutability": "view",
      "type": "function"
    },
    {
      "constant": true,
      "inputs": [
        {
          "name": "_regno",
          "type": "uint256"
        }
      ],
      "name": "showAllLoan1",
      "outputs": [
        {
          "name": "",
          "type": "uint256[]"
        },
        {
          "name": "",
          "type": "uint256[]"
        },
        {
          "name": "",
          "type": "uint256[]"
        },
        {
          "name": "",
          "type": "uint256[]"
        },
        {
          "name": "",
          "type": "uint256[]"
        }
      ],
      "payable": false,
      "stateMutability": "view",
      "type": "function"
    },
    {
      "constant": false,
      "inputs": [
        {
          "name": "_name",
          "type": "bytes32"
        },
        {
          "name": "_adharNo",
          "type": "uint256"
        },
        {
          "name": "_contactNo",
          "type": "uint256"
        },
        {
          "name": "_altContactNo",
          "type": "uint256"
        },
        {
          "name": "_emailAdd",
          "type": "bytes32"
        },
        {
          "name": "_add",
          "type": "bytes32"
        },
        {
          "name": "_rID",
          "type": "uint256"
        },
        {
          "name": "_pssword",
          "type": "bytes32"
        },
        {
          "name": "_acountPublicADD",
          "type": "bytes32"
        },
        {
          "name": "_state",
          "type": "bytes32"
        },
        {
          "name": "_district",
          "type": "bytes32"
        },
        {
          "name": "_loanpoints",
          "type": "uint256"
        }
      ],
      "name": "updateReg",
      "outputs": [],
      "payable": false,
      "stateMutability": "nonpayable",
      "type": "function"
    },
    {
      "constant": false,
      "inputs": [
        {
          "name": "_regno",
          "type": "uint256"
        },
        {
          "name": "_loanamount",
          "type": "uint256"
        },
        {
          "name": "_totalreturn",
          "type": "uint256"
        },
        {
          "name": "_noOfDays",
          "type": "uint256"
        },
        {
          "name": "_noOfinstallment",
          "type": "uint256"
        },
        {
          "name": "_primiumPercent",
          "type": "uint256"
        },
        {
          "name": "_remarks",
          "type": "bytes32"
        },
        {
          "name": "_loantakenBY",
          "type": "uint256"
        },
        {
          "name": "_date",
          "type": "bytes32"
        }
      ],
      "name": "insertloan",
      "outputs": [],
      "payable": false,
      "stateMutability": "nonpayable",
      "type": "function"
    },
    {
      "constant": false,
      "inputs": [
        {
          "name": "_regno",
          "type": "uint256"
        },
        {
          "name": "_loanID",
          "type": "uint256"
        },
        {
          "name": "_loanGivenBy",
          "type": "uint256"
        }
      ],
      "name": "updateloanGiven",
      "outputs": [],
      "payable": false,
      "stateMutability": "nonpayable",
      "type": "function"
    },
    {
      "constant": false,
      "inputs": [
        {
          "name": "_rID",
          "type": "uint256"
        },
        {
          "name": "_loanpoints",
          "type": "uint256"
        }
      ],
      "name": "updatepoints",
      "outputs": [],
      "payable": false,
      "stateMutability": "nonpayable",
      "type": "function"
    }
  ],
  "bytecode": "0x60606040526000600155341561001457600080fd5b6115fa806100236000396000f300606060405260043610610098576000357c0100000000000000000000000000000000000000000000000000000000900463ffffffff168062d9c78a1461009d57806303eeb1e0146101175780630ba5648f146101b057806337b642dd146103485780633dfc54fe1461048a578063676e44b514610622578063d3238981146106c4578063de97e9f714610737578063e900bd601461076c575b600080fd5b34156100a857600080fd5b6100be6004808035906020019091905050610798565b604051808760001916600019168152602001868152602001858152602001846000191660001916815260200183600019166000191681526020018260001916600019168152602001965050505050505060405180910390f35b341561012257600080fd5b6101ae60048080356000191690602001909190803590602001909190803590602001909190803590602001909190803560001916906020019091908035600019169060200190919080356000191690602001909190803560001916906020019091908035600019169060200190919080356000191690602001909190803590602001909190505061083a565b005b34156101bb57600080fd5b6101d160048080359060200190919050506109a9565b60405180806020018060200180602001806020018060200186810386528b818151815260200191508051906020019060200280838360005b83811015610224578082015181840152602081019050610209565b5050505090500186810385528a818151815260200191508051906020019060200280838360005b8381101561026657808201518184015260208101905061024b565b50505050905001868103845289818151815260200191508051906020019060200280838360005b838110156102a857808201518184015260208101905061028d565b50505050905001868103835288818151815260200191508051906020019060200280838360005b838110156102ea5780820151818401526020810190506102cf565b50505050905001868103825287818151815260200191508051906020019060200280838360005b8381101561032c578082015181840152602081019050610311565b505050509050019a505050505050505050505060405180910390f35b341561035357600080fd5b61035b610c65565b6040518080602001806020018060200180602001858103855289818151815260200191508051906020019060200280838360005b838110156103aa57808201518184015260208101905061038f565b50505050905001858103845288818151815260200191508051906020019060200280838360005b838110156103ec5780820151818401526020810190506103d1565b50505050905001858103835287818151815260200191508051906020019060200280838360005b8381101561042e578082015181840152602081019050610413565b50505050905001858103825286818151815260200191508051906020019060200280838360005b83811015610470578082015181840152602081019050610455565b505050509050019850505050505050505060405180910390f35b341561049557600080fd5b6104ab6004808035906020019091905050610e4a565b60405180806020018060200180602001806020018060200186810386528b818151815260200191508051906020019060200280838360005b838110156104fe5780820151818401526020810190506104e3565b5050505090500186810385528a818151815260200191508051906020019060200280838360005b83811015610540578082015181840152602081019050610525565b50505050905001868103845289818151815260200191508051906020019060200280838360005b83811015610582578082015181840152602081019050610567565b50505050905001868103835288818151815260200191508051906020019060200280838360005b838110156105c45780820151818401526020810190506105a9565b50505050905001868103825287818151815260200191508051906020019060200280838360005b838110156106065780820151818401526020810190506105eb565b505050509050019a505050505050505050505060405180910390f35b341561062d57600080fd5b6106c26004808035600019169060200190919080359060200190919080359060200190919080359060200190919080356000191690602001909190803560001916906020019091908035906020019091908035600019169060200190919080356000191690602001909190803560001916906020019091908035600019169060200190919080359060200190919050506110f2565b005b34156106cf57600080fd5b6107356004808035906020019091908035906020019091908035906020019091908035906020019091908035906020019091908035906020019091908035600019169060200190919080359060200190919080356000191690602001909190505061123a565b005b341561074257600080fd5b61076a6004808035906020019091908035906020019091908035906020019091905050611526565b005b341561077757600080fd5b6107966004808035906020019091908035906020019091905050611588565b005b60008060008060008060008088815260200190815260200160002060000154600080898152602001908152602001600020600e01546000808a8152602001908152602001600020600201546000808b8152602001908152602001600020600401546000808c8152602001908152602001600020600701546000808d81526020019081526020016000206006015495509550955095509550955091939550919395565b8a60008060015481526020019081526020016000206000018160001916905550896000806001548152602001908152602001600020600101819055508860008060015481526020019081526020016000206002018190555087600080600154815260200190815260200160002060030181905550866000806001548152602001908152602001600020600401816000191690555085600080600154815260200190815260200160002060050181600019169055508460008060015481526020019081526020016000206006018160001916905550836000806001548152602001908152602001600020600701816000191690555082600080600154815260200190815260200160002060080181600019169055508160008060015481526020019081526020016000206009018160001916905550806000806001548152602001908152602001600020600e01819055506001600081548092919060010191905055505050505050505050505050565b6109b16115a6565b6109b96115ba565b6109c16115a6565b6109c96115a6565b6109d16115ba565b60006109db6115a6565b6109e36115ba565b6109eb6115a6565b6109f36115a6565b6109fb6115ba565b60008060008e8152602001908152602001600020600a0154965086604051805910610a235750595b9080825280602002602001820160405250955086604051805910610a445750595b9080825280602002602001820160405250945086604051805910610a655750595b9080825280602002602001820160405250935086604051805910610a865750595b9080825280602002602001820160405250925086604051805910610aa75750595b90808252806020026020018201604052509150600090505b86811015610c46576000808e8152602001908152602001600020600b016000828152602001908152602001600020600601548682815181101515610aff57fe5b90602001906020020181815250506000808e8152602001908152602001600020600b016000828152602001908152602001600020600701548582815181101515610b4557fe5b9060200190602002019060001916908160001916815250506000808e8152602001908152602001600020600b016000828152602001908152602001600020600801548482815181101515610b9557fe5b90602001906020020181815250506000808e8152602001908152602001600020600b016000828152602001908152602001600020600901548382815181101515610bdb57fe5b90602001906020020181815250506000808e8152602001908152602001600020600b016000828152602001908152602001600020600a01548282815181101515610c2157fe5b9060200190602002019060001916908160001916815250508080600101915050610abf565b85858585859b509b509b509b509b505050505050505091939590929450565b610c6d6115ba565b610c756115ba565b610c7d6115a6565b610c856115ba565b6000610c8f6115ba565b610c976115ba565b610c9f6115a6565b610ca76115ba565b6000600154955085604051805910610cbc5750595b9080825280602002602001820160405250945085604051805910610cdd5750595b9080825280602002602001820160405250935085604051805910610cfe5750595b9080825280602002602001820160405250925085604051805910610d1f5750595b90808252806020026020018201604052509150600090505b85811015610e3257600080828152602001908152602001600020600001548582815181101515610d6357fe5b906020019060200201906000191690816000191681525050600080828152602001908152602001600020600601548482815181101515610d9f57fe5b906020019060200201906000191690816000191681525050600080828152602001908152602001600020600e01548382815181101515610ddb57fe5b9060200190602002018181525050600080828152602001908152602001600020600901548282815181101515610e0d57fe5b9060200190602002019060001916908160001916815250508080600101915050610d37565b84848484995099509950995050505050505090919293565b610e526115a6565b610e5a6115a6565b610e626115a6565b610e6a6115a6565b610e726115a6565b6000610e7c6115a6565b610e846115a6565b610e8c6115a6565b610e946115a6565b610e9c6115a6565b60008060008e8152602001908152602001600020600a0154965086604051805910610ec45750595b9080825280602002602001820160405250955086604051805910610ee55750595b9080825280602002602001820160405250945086604051805910610f065750595b9080825280602002602001820160405250935086604051805910610f275750595b9080825280602002602001820160405250925086604051805910610f485750595b90808252806020026020018201604052509150600090505b868110156110d3576000808e8152602001908152602001600020600b016000828152602001908152602001600020600101548682815181101515610fa057fe5b90602001906020020181815250506000808e8152602001908152602001600020600b016000828152602001908152602001600020600201548582815181101515610fe657fe5b90602001906020020181815250506000808e8152602001908152602001600020600b01600082815260200190815260200160002060030154848281518110151561102c57fe5b90602001906020020181815250506000808e8152602001908152602001600020600b01600082815260200190815260200160002060040154838281518110151561107257fe5b90602001906020020181815250506000808e8152602001908152602001600020600b0160008281526020019081526020016000206005015482828151811015156110b857fe5b90602001906020020181815250508080600101915050610f60565b85858585859b509b509b509b509b505050505050505091939590929450565b8b60008088815260200190815260200160002060000181600019169055508a600080888152602001908152602001600020600101819055508960008088815260200190815260200160002060020181905550886000808881526020019081526020016000206003018190555087600080888152602001908152602001600020600401816000191690555086600080888152602001908152602001600020600501816000191690555084600080888152602001908152602001600020600601816000191690555083600080888152602001908152602001600020600701816000191690555082600080888152602001908152602001600020600801816000191690555081600080888152602001908152602001600020600901816000191690555080600080888152602001908152602001600020600e0181905550505050505050505050505050565b6000808a8152602001908152602001600020600a01546000808b8152602001908152602001600020600b0160008060008d8152602001908152602001600020600a0154815260200190815260200160002060000181905550876000808b8152602001908152602001600020600b0160008060008d8152602001908152602001600020600a0154815260200190815260200160002060010181905550866000808b8152602001908152602001600020600b0160008060008d8152602001908152602001600020600a0154815260200190815260200160002060020181905550856000808b8152602001908152602001600020600b0160008060008d8152602001908152602001600020600a0154815260200190815260200160002060030181905550846000808b8152602001908152602001600020600b0160008060008d8152602001908152602001600020600a0154815260200190815260200160002060040181905550836000808b8152602001908152602001600020600b0160008060008d8152602001908152602001600020600a0154815260200190815260200160002060050181905550826000808b8152602001908152602001600020600b0160008060008d8152602001908152602001600020600a015481526020019081526020016000206007018160001916905550816000808b8152602001908152602001600020600b0160008060008d8152602001908152602001600020600a0154815260200190815260200160002060090181905550806000808b8152602001908152602001600020600b0160008060008d8152602001908152602001600020600a01548152602001908152602001600020600a01816000191690555060008060008b8152602001908152602001600020600b0160008060008d8152602001908152602001600020600a01548152602001908152602001600020600601819055506000808a8152602001908152602001600020600a0160008154809291906001019190505550505050505050505050565b80600080858152602001908152602001600020600b016000848152602001908152602001600020600801819055506001600080858152602001908152602001600020600b01600084815260200190815260200160002060060181905550505050565b80600080848152602001908152602001600020600e01819055505050565b602060405190810160405280600081525090565b6020604051908101604052806000815250905600a165627a7a72305820e46a9f6eaf9ced7a69f90d277183e11e845b3dbd95643fe1e37ac432f7f532250029",
  "source": "pragma solidity ^0.4.17;\r\n\r\ncontract MiLeregistration {\r\n    mapping (uint => structReg) stReg; \r\n    uint _regID = 0;\r\n\r\n    /**registration contract */\r\n    struct structReg {\r\n        bytes32 name;\r\n        uint adharNo;\r\n        uint contactNO;\r\n        uint altContactNo;\r\n        bytes32 emailAdd;\r\n        bytes32 addressUser; \r\n        bytes32 password;\r\n        bytes32 acountPublicADD;\r\n        bytes32 state;\r\n        bytes32 district;\r\n        uint _loancount;\r\n        mapping (uint => loanStruct) loanstr;\r\n        uint _balanceCount;\r\n        mapping (uint => balanceStruct) balstr;\r\n        uint loanpoints;\r\n\r\n    }\r\n\r\n/**0 for comlete 1 for incomplete */\r\n    struct loanStruct {\r\n        uint id;\r\n        uint loanamount;\r\n        uint totalreturn;\r\n        uint noOfDays;\r\n        uint noOfinstallment;\r\n        uint primiumPercent;\r\n        uint loanstatus;\r\n        bytes32 remark;\r\n        uint loanGivenBy;\r\n        uint loantakenBY;\r\n        bytes32 date;\r\n    }\r\n\r\n    struct balanceStruct {\r\n        uint balance;\r\n    }\r\n    /** insert loaddata */\r\n\r\n    function insertloan (\r\n        uint _regno,\r\n        uint _loanamount,\r\n        uint _totalreturn,\r\n        uint _noOfDays,\r\n        uint _noOfinstallment,\r\n        uint _primiumPercent,\r\n        bytes32 _remarks,\r\n        uint _loantakenBY,\r\n        bytes32 _date\r\n        \r\n    ) public{\r\n        stReg[_regno].loanstr[stReg[_regno]._loancount].id = stReg[_regno]._loancount;\r\n        stReg[_regno].loanstr[stReg[_regno]._loancount].loanamount = _loanamount;\r\n        stReg[_regno].loanstr[stReg[_regno]._loancount].totalreturn = _totalreturn;\r\n        stReg[_regno].loanstr[stReg[_regno]._loancount].noOfDays = _noOfDays;\r\n        stReg[_regno].loanstr[stReg[_regno]._loancount].noOfinstallment = _noOfinstallment;\r\n        stReg[_regno].loanstr[stReg[_regno]._loancount].primiumPercent = _primiumPercent;\r\n        stReg[_regno].loanstr[stReg[_regno]._loancount].remark = _remarks;\r\n        stReg[_regno].loanstr[stReg[_regno]._loancount].loantakenBY = _loantakenBY;\r\n        stReg[_regno].loanstr[stReg[_regno]._loancount].date = _date;\r\n        stReg[_regno].loanstr[stReg[_regno]._loancount].loanstatus = 0;\r\n        stReg[_regno]._loancount++;\r\n    }\r\n\r\n    function updateloanGiven(\r\n        uint _regno,\r\n        uint _loanID,\r\n        uint _loanGivenBy\r\n\r\n    )public{\r\n        stReg[_regno].loanstr[_loanID].loanGivenBy = _loanGivenBy;\r\n        stReg[_regno].loanstr[_loanID].loanstatus = 1;\r\n    }\r\n\r\n    /**show loan */\r\n    function showAllLoan1(uint _regno) public constant returns(\r\n        uint[],\r\n        uint[],\r\n        uint[],\r\n        uint[],\r\n        uint[] \r\n    ){\r\n        uint _totalloancount = stReg[_regno]._loancount;\r\n        uint[] memory _loanamount = new uint[](_totalloancount);\r\n        uint[] memory _totalreturn = new uint[](_totalloancount);\r\n        uint[] memory _noOfDays = new uint[](_totalloancount);\r\n        uint[] memory _noOfinstallment = new uint[](_totalloancount);\r\n        uint[] memory _primiumPercent = new uint[](_totalloancount);\r\n\r\n        for (uint i = 0; i < _totalloancount; i++){\r\n            _loanamount[i] = stReg[_regno].loanstr[i].loanamount;\r\n            _totalreturn[i] = stReg[_regno].loanstr[i].totalreturn;\r\n            _noOfDays[i] = stReg[_regno].loanstr[i].noOfDays;\r\n            _noOfinstallment[i] = stReg[_regno].loanstr[i].noOfinstallment;\r\n            _primiumPercent[i] = stReg[_regno].loanstr[i].primiumPercent;\r\n        }\r\n        return(_loanamount, _totalreturn, _noOfDays, _noOfinstallment, _primiumPercent);\r\n    }\r\n\r\n    function showAllLoan2(uint _regno) public constant returns(\r\n        uint[],\r\n        bytes32[],\r\n        uint[],\r\n        uint[],\r\n        bytes32[] \r\n    ){\r\n        uint _totalloancount = stReg[_regno]._loancount;\r\n       \r\n        uint[] memory _loanstatus = new uint[](_totalloancount);\r\n        bytes32[] memory _remark = new bytes32[](_totalloancount);\r\n        uint[] memory _loanGivenBy = new uint[](_totalloancount);\r\n        uint[] memory _loantakenBY = new uint[](_totalloancount);\r\n        bytes32[] memory _date = new bytes32[](_totalloancount);\r\n\r\n        for (uint i = 0; i < _totalloancount; i++){\r\n            _loanstatus[i] = stReg[_regno].loanstr[i].loanstatus;\r\n            _remark[i] = stReg[_regno].loanstr[i].remark;\r\n            _loanGivenBy[i] = stReg[_regno].loanstr[i].loanGivenBy;\r\n            _loantakenBY[i] = stReg[_regno].loanstr[i].loantakenBY;\r\n            _date[i] = stReg[_regno].loanstr[i].date;\r\n        }\r\n        return(_loanstatus, _remark, _loanGivenBy, _loantakenBY, _date);\r\n    }\r\n    /**insert data in registration contract */\r\n    function insertReg(\r\n        bytes32 _name, \r\n        uint _adharNo, \r\n        uint _contactNo, \r\n        uint _altContactNo, \r\n        bytes32 _emailAdd,\r\n        bytes32 _add, \r\n        bytes32 _pssword, \r\n        bytes32 _acountPublicADD, \r\n        bytes32 _state, \r\n        bytes32 _district,\r\n        uint _loanpoints\r\n        \r\n       \r\n        )public\r\n        {\r\n            stReg[_regID].name = _name;\r\n            stReg[_regID].adharNo = _adharNo;\r\n            stReg[_regID].contactNO = _contactNo;\r\n            stReg[_regID].altContactNo = _altContactNo;\r\n            stReg[_regID].emailAdd = _emailAdd;\r\n            stReg[_regID].addressUser = _add;\r\n            stReg[_regID].password = _pssword;\r\n            stReg[_regID].acountPublicADD = _acountPublicADD;\r\n            stReg[_regID].state = _state;\r\n            stReg[_regID].district = _district;\r\n            stReg[_regID].loanpoints = _loanpoints;\r\n          \r\n            _regID++;\r\n        }\r\n\r\n   \r\n\r\n    /**update registration data */\r\n    function updateReg (\r\n        bytes32 _name, \r\n        uint _adharNo, \r\n        uint _contactNo, \r\n        uint _altContactNo, \r\n        bytes32 _emailAdd, \r\n        bytes32 _add, \r\n        uint _rID,\r\n        bytes32 _pssword,\r\n        bytes32 _acountPublicADD, \r\n        bytes32 _state, \r\n        bytes32 _district,\r\n        uint _loanpoints\r\n\r\n        ) public {\r\n        stReg[_rID].name = _name;\r\n        stReg[_rID].adharNo = _adharNo;\r\n        stReg[_rID].contactNO = _contactNo;\r\n        stReg[_rID].altContactNo = _altContactNo;\r\n        stReg[_rID].emailAdd = _emailAdd;\r\n        stReg[_rID].addressUser = _add;\r\n        stReg[_rID].password = _pssword;\r\n        stReg[_rID].acountPublicADD = _acountPublicADD;\r\n        stReg[_rID].state = _state;\r\n        stReg[_rID].district = _district;\r\n        stReg[_rID].loanpoints = _loanpoints;\r\n    }\r\n\r\n    /**update points of borrow  */\r\n    function updatepoints (uint _rID, uint _loanpoints) public {\r\n        stReg[_rID].loanpoints = _loanpoints;\r\n    }\r\n    \r\n    /**show regdata single user */\r\n    function showRegDataSingle (uint _rID) public constant returns(\r\n        bytes32 name_,\r\n        uint loanpoints_,\r\n        uint contactNO_,\r\n     \r\n        bytes32 emailAdd_,\r\n        bytes32 acountPublicADD_,\r\n        bytes32 password_\r\n    ) {\r\n        return(\r\n            stReg[_rID].name, \r\n            stReg[_rID].loanpoints, \r\n            stReg[_rID].contactNO, \r\n            stReg[_rID].emailAdd, \r\n            stReg[_rID].acountPublicADD,\r\n            stReg[_rID].password\r\n            );\r\n    }\r\n\r\n    /**show all regdata  */\r\n    function showRegData () public constant returns(\r\n        bytes32[],\r\n        bytes32[],\r\n        uint[],\r\n        bytes32[]\r\n    ){\r\n        uint totaldata = _regID;\r\n        bytes32[] memory name_ = new bytes32[](totaldata);\r\n        //\r\n        //uint[] memory contactNO_ = new uint[](totaldata);\r\n        //uint[] memory altContactNo_ = new uint[](totaldata);\r\n        //bytes32[] memory emailAdd_ = new bytes32[](totaldata);\r\n        //\r\n        bytes32[] memory password_ = new bytes32[](totaldata);\r\n        uint[] memory loanpoints_ = new uint[](totaldata);\r\n        bytes32[] memory district_ = new bytes32[](totaldata);\r\n\r\n        for (uint i = 0; i < totaldata; i++){\r\n            name_[i] = stReg[i].name;\r\n          //  adharNo_[i] = stReg[i].adharNo;\r\n          //  contactNO_[i] = stReg[i].contactNO;\r\n          //  altContactNo_[i] = stReg[i].altContactNo;\r\n          //  emailAdd_[i] = stReg[i].emailAdd;\r\n          //  addressUser_[i] = stReg[i].addressUser;\r\n            password_[i] = stReg[i].password;\r\n            loanpoints_[i] = stReg[i].loanpoints;\r\n            district_[i] = stReg[i].district;\r\n        }\r\n\r\n        //return(name_, adharNo_, contactNO_, altContactNo_, emailAdd_, addressUser_, password_ );\r\n        return(name_, password_, loanpoints_, district_);\r\n    }\r\n\r\n}\r\n\r\n\r\n",
  "sourcePath": "E:\\blockchain_sultans\\jio_mi-le_contracts\\contracts\\MiLeregistration.sol",
  "compiler": {
    "name": "solc",
    "version": "0.4.18+commit.9cf6e910.Emscripten.clang"
  },
  "schemaVersion": "1.0.1",
  "updatedAt": "2018-05-14T15:05:51.678Z"
}